:0200000080235B
:10002300801A758108D2AFD2ACC298759850758981
:1000330021758DE8D28EC2217D0380FEBD0303E5C9
:1000430099F811613021047D038010DD0E88A07DB5
:1000530003E8B480028004116F1191C29832E599CC
:100063008832B53204C2218002D22122E820E40A78
:1000730020E50C20E60E20E7102275300080FA758B
:10008300301080F575302080F075303080EBE85407
:100093000FB4010975903575310011C522B40209F9
:1000A30075907875310411C522B4040975903D75B6
:1000B300310811C522B4080975907575310C11C545
:1000C3002222E5302531F97583007582FD93F58C85
:1000D300A3E993F58AD291D297D28C308DFDC28C4D
:1000E300C28DA3E993F58CA3E993F58AC291C297D4
:1000F300D28C308DFDC28CC28D22E890F060E890E6
:10010300F060E890F060E890F060E4A8F448E4A8B8
:10011300F448E4A8F448E4A8F448E0C0F830E0C0A8
:10012300F830E0C0F830E0C0F830D954FF9CD9541F
:0A013300FF9CD954FF9CD954FF9C97
:00000001FF
