:0200000080235B
:100023008018D2AFD2ACC298759850758921758D5E
:10003300E8D28E7532007D0380FEBD0304E599F49A
:10004300F81162E532B4FF047D038010DD0E88A051
:100053007D03E8B40002800411731195C29832E560
:1000630099F48832B5320575320080037532FF2268
:10007300E830E40A30E50C30E60E30E71022753044
:100083000080FA75301080F575302080F0753030BF
:1000930080EBE8540FB40E0975903575310011C922
:1000A30022B40D0975907875310411C922B40B0976
:1000B30075903D75310811C922B40709759075759E
:1000C300310C11C92222E5302531F975830175827E
:1000D3002793F58CA3E993F58AD291D297D28C30EA
:1000E3008DFDC28CC28DA3E993F58CA3E993F58AA8
:1000F300C291C297D28C308DFDC28CC28D22C3A215
:10010300E69220A2E092E6A22092E0A2E59220A24B
:10011300E192E5A22092E1A2E49220A2E292E4A27B
:100123002092E222E890F060E890F060E890F060BE
:10013300E890F060E4A8F448E4A8F448E4A8F4489C
:10014300E4A8F448E0C0F830E0C0F830E0C0F8308C
:10015300E0C0F830D954FF9CD954FF9CD954FF9C7C
:04016300D954FF9CD0
:00000001FF
