:0200000080235B
:100023008017D2AFD2ACC298759850758921758D5F
:10003300E8D28EC2217D0380FEBD0303E599F8114A
:100043005E3021047D038010DD0E88A07D03E8B4BB
:1000530080028004116C118EC29832E5998832B502
:100063003204C2218002D22122E830E40A30E50CB6
:1000730030E60E30E7102275300080FA75301080BC
:10008300F575302080F075303080EBE8540FB40103
:100093000975903575310011C222B4020975907843
:1000A30075310411C222B4040975903D75310811EC
:1000B300C222B4080975907575310C11C22222E56C
:1000C300302531F97583007582FA93F58CA3E99392
:1000D300F58AD291D297D28C308DFDC28CC28DA37A
:1000E300E993F58CA3E993F58AC291C297D28C3038
:1000F3008DFDC28CC28D22E890F060E890F060E83C
:1001030090F060E890F060E4A8F448E4A8F448E4D0
:10011300A8F448E4A8F448E0C0F830E0C0F830E0C0
:10012300C0F830E0C0F830D954FF9CD954FF9CD9B3
:0701330054FF9CD954FF9C0E
:00000001FF
