:02000000802E50
:02000300805823
:02001300807CEF
:0200230001C119
:10003000D2A8D2AAD2ACD2AFD288D28A75830075A8
:1000400082D67590067801759850758921758DE86E
:10005000D28E75A0EFD2317E14D29980FED2317E3D
:1000600014B80402800C11A708E893F59030B2FD93
:100070001173327D1FDD028011758CD8758AF0D224
:100080008C308DFDC28CC28D80EBC28CC28DC2893A
:1000900022D2317E14B80102800C11AC18E893F51D
:1000A0009030B3FD117332D23011B122C23011B190
:1000B00022E5A0440FF430300323800103F4F5A0BF
:1000C00022303108E5A0F4F599C29932DE047E149D
:1000D000C231747F80F15F063B2F666D7D077F67BD
:00000001FF
