:02000000802E50
:02000300805823
:02001300806605
:0200230001CF0B
:10003000D2A8D2AAD2ACD2AFD288D28A75830075A8
:1000400082E47590067801759850758921758DE860
:10005000D28E75A0EFD2317E14D29980FED2317E3D
:1000600014B80402801411A320B2FB119908E8937C
:10007000F59030B2FD11A330B2FB32D2317E14B80C
:100080000102801411A320B3FB119E18E893F59090
:1000900030B3FD11A330B3FB32D23011C122C230D4
:1000A00011C1227D06DD028011758CD8758AF0D2CF
:1000B0008C308DFDC28CC28D80EBC28CC28DC2890A
:1000C00022E5A0440F30300323800103F5A0222055
:1000D0003108E5A0F4F599C29932DE047E14C231EC
:0E00E000748080F15F063B2F666D7D077F67A1
:00000001FF
