:02000000802E50
:02000300805922
:02001300807EED
:0200230001D208
:10003000D2A8D2AAD2ACD2AFD288D28A75830075A8
:1000400082EA7590067801759850758921758DE85A
:10005000D28E75A0EF7531017E14D29980FE753174
:10006000017E14B80402800C11AA08E893F59030C0
:10007000B2FD1175327D1FDD028011758CD8758A35
:10008000F0D28C308DFDC28CC28D80EBC28CC28DC3
:10009000C289227531017E14B80102800C11B0189A
:1000A000E893F59030B3FD11753275300111B62229
:1000B00075300011B622E5A0440FF4AA30BA01034E
:1000C00023800103F454F0FAE5A0540F2A440FF5FD
:1000D000A022E531B40008E5A0F4F599C29932DE1A
:1000E000057E1475310074FF80F05F063B2F666D4E
:0400F0007D077F67A2
:00000001FF
