:02000000802E50
:02000300805B20
:02001300806902
:0200230001D208
:10003000758108D2A8D2AAD2ACD2AFD288D28A75A2
:1000400083007582E775900678017598507589214F
:10005000758DE8D28E75A0EFD2317E14D29980FED4
:10006000D2317E14B80402801411A620B2FB119C78
:1000700008E893F59030B2FD11A630B2FB32D231D0
:100080007E14B80102801411A620B3FB11A118E858
:1000900093F59030B3FD11A630B3FB32D23011C4CA
:1000A00022C23011C4227D06DD028011758CD87504
:1000B0008AF0D28C308DFDC28CC28D80EBC28CC296
:1000C0008DC28922E5A0440F30300323800103F55F
:1000D000A022203108E5A0F4F599C29932DE047E11
:1000E00014C231748080F15F063B2F666D7D077FFF
:0100F00067A8
:00000001FF
